S019000070776D69782D736572766F2D6C696D69742E737265632E
S11300000EC01DC06BC027C04DC030C018C017C083
S113001016C015C015C013C012C011C010C01124E1
S11300201FBECFE5D2E0DEBFCDBF20E0A0E6B0E04A
S113003001C01D92AE36B207E1F74BD269C2E0CFE0
S11300401F920F920FB60F921124C1980F900FBEFA
S11300500F901F9018951F920F920FB60F921124B4
S1130060C2980F900FBE0F901F9018951F920F9279
S11300700FB60F9211248F939F9380916C0081305F
S113008031F48AEF90E090936900809368001092B5
S11300906C00C19813BE9F918F910F900FBE0F906B
S11300A01F9018951F920F920FB60F9211248F93E1
S11300B09F9380916D00813031F48AEF90E09093AA
S11300C06B0080936A0010926D00C29810BE9F91DD
S11300D08F910F900FBE0F901F90189578941F92D8
S11300E00F920FB60F921124CF92DF92FF920F93CB
S11300F01F932F933F934F935F936F937F938F93AC
S11301009F93AF93BF93CF93DF93EF93FF9380912C
S1130110600083FD0FC1809160008860809360005F
S113012031E080E090E011E000E0F12CC1E6D0E0A5
S1130130A8E6B0E002C001963F5FAC01FC01E459BF
S1130140FF4F2081222321F0213009F47EC0BAC060
S113015066B3282F882309F4BEC064FFB3C0FA0134
S1130160E459FF4F10834091600041FF0DC0129687
S11301704D915C9113975983488312964D915C91EC
S113018013975B834A83AAC04D915C91119759835D
S113019048834D915C9111975B834A839FC0BA0158
S11301A0FA01EE0FFF1FEF59FF4FC080D180E0919D
S11301B06500F0E0EC15FD0554F4C0906500D12C09
S11301C0FA01EE0FFF1FEF59FF4FD182C082FB01EE
S11301D0EE0FFF1FEF59FF4FC080D180E091670001
S11301E0F0E0CE16DF0654F4C0906700D12C660F01
S11301F0771FFB01EF59FF4FD182C0824F5F5F4FE2
S11302004230510561F6211110C04881598149BD20
S113021012BE2CB521602CBD23B7236023BF2091CF
S1130220600022FF88CFC19A86CF4A815B814EBD90
S11302301FBC2CB522602CBD20B7276020BF2091A5
S1130240600022FF3FC0C29A3DC026B381116FC037
S113025057C012966D917C9113974091670050E0BE
S11302606417750774F412964D915C91139740933B
S11302706700209160002062209360001092660065
S113028021C012966D917C9113974091650050E0C6
S11302904617570774F412964D915C911397409347
S11302A06500209160002062209360001092660037
S11302B009C020916600223328F4209166002F5F44
S11302C020936600323008F436CF80916000877F37
S11302D0809360002FC063FD42CF2DCF402F5F2D50
S11302E05ECFFA01E459FF4F108242B750E01196F5
S11302F05C934E93209160002160209360001BCF9B
S113030023FFEFCFDFCFFA01E459FF4F10824FB53F
S113031050E013965C934E931297209160002260F4
S1130320209360002091600022FD93CFCBCF24FF67
S1130330EACFC8CFFF91EF91DF91CF91BF91AF91F9
S11303409F918F917F916F915F914F913F912F91E9
S11303501F910F91FF90DF90CF900F900FBE0F90E1
S11303601F9018950F931F93CF9327E030E050E828
S113037090E4E8E6F0E0452F490F41BF809160002A
S11303808E7F809360008091600080FFFCCF80911D
S113039060008E7F809360008091600080FFFCCFBE
S11303A0608171816D3771050CF4542F969521503D
S11303B0310909F79FEF950F452F50E04F5F5F4FCD
S11303C0292F30E042175307C4F1CFEF6FEF7FE7D7
S11303D0E8E6F0E0A3E8BFEF91BF809160008E7F74
S11303E0809360008091600080FFFCCF809160006A
S11303F08E7F809360008091600080FFFCCF20811D
S113040031812D573109121613062CF420813181C4
S11304102D57310906C0208131818D01021B130B38
S113042098012617370714F4C92FB9019F5F292FA4
S113043030E04217530784F601C0CFEFC1BF80916B
S11304406000846080936000C09ACF911F910F91E7
S1130450089580E090E054D08093670081E090E0BC
S11304604FD080936500809167008F3F21F0809189
S113047065008F3F31F48DE7809367008AEF8093A6
S11304806500089587B3876087BB88B3886188BB9C
S1130490E8E6F0E08BEF90E093838283918380839E
S11304A0E1E6F0E08CEB90E0938382839183808398
S11304B0ECE6F0E0118210821092600089B7866544
S11304C089BF85B3886185BB8BB780628BBF789405
S11304D008952FEF80E792E0215080409040E1F7AB
S11304E000C00000CFDF3EDF8091600081FF06C0C6
S11304F08CEB809365008093670001C0AADFFFCF77
S1130500E199FECF9FBB8EBBE09A99278DB30895E6
S1070510F894FFCF89
S9030000FC
