:100000000EC01BC036C019C01FC017C016C015C017
:1000100014C013C012C011C010C00FC00EC01124F4
:100020001FBECFEDCDBF20E0A0E6B0E001C01D9225
:10003000A136B207E1F77ED07FC0E2CFB39B02C00A
:10004000C49A0895C49808951F920F920FB60F9204
:1000500011248F939F9381E08093600098B3892748
:1000600088BB10BE9F918F910F900FBE0F901F9075
:1000700018951F920F920FB60F9211242F933F9352
:100080004F935F936F937F938F939F93AF93BF93A0
:10009000EF93FF931FBC8CB582608CBD8091600094
:1000A0008230C9F048F48823A1F08130F9F482E06D
:1000B00080936000C19A1AC08430A9F070F0853036
:1000C000A9F410926000C298B9DF80B7886080BF41
:1000D0000DC0B4DF0BC083E007C084E080936000F4
:1000E000C198C29A03C085E080936000FF91EF91B0
:1000F000BF91AF919F918F917F916F915F914F9140
:100100003F912F910F900FBE0F901F901895109256
:10011000600087B3876187BBC39A90DF89B784602B
:1001200089BF80B7886080BFAB9A8BB780628BBF76
:0C01300078940895ECDFFFCFF894FFCF27
:00000001FF
