S00D000070776D69782E73726563E2
S11300000EC01DC01CC01BC01AC019C018C017C028
S113001016C015C015C013C012C011C010C01124E1
S11300201FBECFE5D2E0DEBFCDBF20E0A0E6B0E04A
S113003001C01D92A636B207E1F787D087C0E0CF92
S11300401F920F920FB60F9211241F932F933F9379
S11300504F935F936F937F938F939F93AF93BF93CC
S1130060CF93DF93EF93FF9351E080E090E0C1E002
S113007018E0D0E0B0E1A0E002C001965F5F9C010F
S1130080FC01EC59FF4F4081442319F0413081F0C9
S113009041C046B3882309F441C044FF3BC0F90181
S11300A0EC59FF4FC083F901EE59FF4F108232C063
S11300B066B370E0882319F0EB2FFA2F02C0E12F0A
S11300C0FD2F6E237F23672B69F0F901EE59FF4F53
S11300D04081433DF8F4F901EE59FF4F30813F5F11
S11300E0308318C0F901EE59FF4F4081433D70F44D
S11300F0F901EE59FF4F40814A3540F0F901EE59BC
S1130100FF4F4081F901E05AFF4F4083F901EC5958
S1130110FF4F1082523008F4B0CF03C043FDBFCF6D
S1130120ACCFFF91EF91DF91CF91BF91AF919F91B0
S11301308F917F916F915F914F913F912F911F917B
S11301400F900FBE0F901F901895FFCFF894FFCF1C
S9030000FC
