:100000000EC01DC01CC01BC01AC019C018C017C02C
:1000100016C015C015C013C012C011C010C01124E5
:100020001FBECFE5D2E0DEBFCDBF20E0A0E6B0E04E
:1000300001C01D92A037B207E1F7DCD0DDC0E0CFF0
:100040001F920F920FB60F9211242F933F934F934D
:100050005F936F938F939F93AF93BF93CF93DF93F0
:10006000EF93FF93809160009091610001969093CF
:100070006100809360008035934C41F498B381E037
:10008000892788BB109261001092600080E090E0A8
:1000900061E046E950E0EC01C859DF4F2881DC01FE
:1000A000A659BF4F222319F0213029F153C026B39E
:1000B00030E0009719F0E0E1F0E002C0E8E0F0E0A5
:1000C0002E233F23232B09F445C06883FC01EA5902
:1000D000FF4F1082FC01EE0FFF1FE459FF4F2081FC
:1000E00031812C9328B3009711F034E001C032E045
:1000F000232B28BB2FC026B330E0009719F0E0E196
:10010000F0E002C0E8E0F0E02E233F23FC01EA59D2
:10011000FF4F232B39F020812D3DE0F420812F5F0C
:10012000208318C020812D3DA0F42081203588F047
:10013000208130E0FC01EE0FFF1FEE59FF4F3183AD
:10014000208350936D0040936C0050936F00409358
:100150006E0018822C91222321F02C9121502C9397
:1001600008C028B3009711F03BEF01C03DEF2323F7
:1001700028BB019719F081E090E08DCFFF91EF91BE
:10018000DF91CF91BF91AF919F918F916F915F91CF
:100190004F913F912F910F900FBE0F901F90189588
:1001A00087B3876087BB88B3886188BBE2E6F0E0ED
:1001B00026E930E03383228331832083E6E6F0E0D2
:1001C00086E981838083E8E6F0E011821082ECE624
:1001D000F0E03383228331832083EAE6F0E08183F9
:1001E000808382E08ABD83BF84E189BD80E189BFCD
:0C01F00078940895D5DFFFCFF894FFCF7E
:00000001FF
