:100000000EC01DC073C027C051C030C018C017C07B
:1000100016C015C015C013C012C011C010C01124E5
:100020001FBECFE5D2E0DEBFCDBF20E0A0E6B0E04E
:1000300001C01D92AB36B207E1F7CCD1D7C1E0CFFA
:100040001F920F920FB60F921124C1980F900FBEFE
:100050000F901F9018951F920F920FB60F921124B8
:10006000C2980F900FBE0F901F9018951F920F927D
:100070000FB60F9211248F939F938091600081603F
:100080008093600080916900813031F48AEF90E0C4
:1000900090936200809361001092690013BE9F915B
:1000A0008F910F900FBE0F901F9018951F920F9277
:1000B0000FB60F9211248F939F93809160008260FE
:1000C0008093600080916A00813031F48AEF90E083
:1000D000909364008093630010926A0010BE9F9119
:1000E0008F910F900FBE0F901F9018951F920F9237
:1000F0000FB60F9211242F933F934F935F936F93FB
:100100007F938F939F93AF93BF93CF93DF93EF939F
:1001100080E090E0E1E04DE750E06AEF70E0DC0164
:10012000A759BF4F2C91222321F0213009F482C01E
:10013000A6C026B330E0009719F0C0E1D0E002C0BD
:10014000C8E0D0E02C233D23232B09F498C0EC9386
:10015000A0916100B0916200209163003091640031
:100160002A0F3B1F2B5B31093093660020936500FB
:100170002091610030916200A0916300B091640011
:1001800025543F4F2A1B3B0B309368002093670098
:1001900020916500309166002B3F310520F070936F
:1001A00066006093650020916500309166002D37F0
:1001B000310520F45093660040936500209167005C
:1001C000309168002B3F310520F0709368006093F8
:1001D000670020916700309168002D37310520F4C9
:1001E0005093680040936700009791F42091650058
:1001F0003091660029BD12BE2CB521602CBD23B7FD
:10020000236023BF2091600022FF39C0C19A37C00C
:1002100020916700309168002EBD1FBC2CB5226074
:100220002CBD20B7276020BF2091600022FF27C08F
:10023000C29A25C026B330E0009719F0C0E1D0E0A3
:1002400002C0C8E0D0E02C233D23232BC1F41C9234
:10025000009751F422B730E03093620020936100A0
:1002600020916000216009C02FB530E03093640018
:10027000209363002091600022602093600001972A
:1002800019F081E090E04BCFEF91DF91CF91BF91DA
:10029000AF919F918F917F916F915F914F913F911E
:1002A0002F910F900FBE0F901F901895CF93DF9353
:1002B00027E030E080E890E4582F590F51BF40917B
:1002C00060004E7F409360004091600040FFFCCF93
:1002D000409160004E7F409360004091600040FF7D
:1002E000FCCF60916100709162006B3B710508F476
:1002F000852F969521503109F9F62FEF280F6FEFD2
:10030000EFEFFFE790E00196A5E4BFEF422F50E04A
:100310008417950784F121BF309160003E7F3093B0
:1003200060003091600030FFFCCF309160003E7F74
:10033000309360003091600030FFFCCF409161004D
:10034000509162004B3B510539F040916100509152
:1003500062004B5B510908C04091610050916200FE
:10036000ED01C41BD50BAE014E175F0714F4622FCD
:10037000FA012F5FCBCF61BF8091600084608093D2
:100380006000C09ADF91CF91089587B3876087BBE3
:1003900088B3886188BBE1E6F0E08BEB90E0938363
:1003A000828391838083E5E6F0E093838283918367
:1003B0008083E9E6F0E0118210821092600089B734
:1003C000866589BF85B3886185BB8BB780628BBF2B
:1003D000789408952FEF80E792E02150804090407C
:1003E000E1F700C00000D1DF61DFFFCFF894FFCF5D
:00000001FF
