S00D000070776D69782E73726563E2
S11300000EC01DC073C027C051C030C018C017C077
S113001016C015C015C013C012C011C010C01124E1
S11300201FBECFE5D2E0DEBFCDBF20E0A0E6B0E04A
S113003001C01D92AB36B207E1F7D5D1E0C1E0CFE4
S11300401F920F920FB60F921124C1980F900FBEFA
S11300500F901F9018951F920F920FB60F921124B4
S1130060C2980F900FBE0F901F9018951F920F9279
S11300700FB60F9211248F939F938091600081603B
S11300808093600080916900813031F48AEF90E0C0
S113009090936600809365001092690013BE9F914F
S11300A08F910F900FBE0F901F9018951F920F9273
S11300B00FB60F9211248F939F93809160008260FA
S11300C08093600080916A00813031F48AEF90E07F
S11300D0909368008093670010926A0010BE9F910D
S11300E08F910F900FBE0F901F9018951F920F9233
S11300F00FB60F9211241F932F933F934F935F9347
S11301006F937F938F939F93AF93BF93CF93DF931B
S1130110EF93FF9380E090E011E0ACEBB0E06DE78B
S113012070E0EAEFF0E0EC01C759DF4F28812223A9
S113013021F0213009F485C0A9C026B330E000972E
S113014019F040E150E002C048E050E02423352398
S1130150232B09F49BC01883C0916500D0916600DD
S113016040916700509168009A012C5B31092C0F73
S11301703D1F3093620020936100409165005091CF
S113018066002091670030916800ED01C21BD30B1B
S11301909E01240F351F3093640020936300209147
S11301A06100309162002B3F310524F0F09362002E
S11301B0E093610020916100309162002D37310598
S11301C024F4709362006093610020916300309185
S11301D064002B3F310524F0F0936400E093630046
S11301E020916300309164002D37310524F470931D
S11301F0640060936300009791F420916100309152
S1130200620029BD12BE2CB521602CBD23B723602A
S113021023BF2091600022FF39C0C19A37C02091CA
S11302206300309164002EBD1FBC2CB522602CBD30
S113023020B7276020BF2091600022FF27C0C29A08
S113024025C026B330E0009719F040E150E002C029
S113025048E050E024233523232BC1F4188200976F
S113026051F422B730E0309366002093650020916A
S11302706000216009C02FB530E0309368002093FE
S1130280670020916000226020936000019719F0BC
S113029081E090E048CFFF91EF91DF91CF91BF9142
S11302A0AF919F918F917F916F915F914F913F910A
S11302B02F911F910F900FBE0F901F901895CF9301
S11302C0DF9327E030E080E890E4582F590F51BFC6
S11302D0409160004E7F409360004091600040FF79
S11302E0FCCF409160004E7F4093600040916000DD
S11302F040FFFCCF60916500709166006C3B710516
S11303000CF4852F969521503109F9F62FEF280F1B
S11303106FEFEFEFFFE790E00196A4E4BFEF422F09
S113032050E08417950784F121BF309160003E7F2F
S1130330309360003091600030FFFCCF309160005A
S11303403E7F309360003091600030FFFCCF4091DD
S11303506500509166004D3B51053CF040916500AD
S1130360509166004C5B510908C040916500509162
S11303706600ED01C41BD50BAE014E175F0714F4E4
S1130380622FFA012F5FCBCF61BF80916000846040
S113039080936000C09ADF91CF91089587B38760FE
S11303A087BB88B3886188BBE5E6F0E08CEB90E01E
S11303B09383828391838083E1E6F0E09383828355
S11303C091838083E9E6F0E011821082109260004C
S11303D089B7866589BF85B3886185BB8BB7806221
S11303E08BBF789408952FEF80E792E021508040EE
S11303F09040E1F700C00000D1DF61DFFFCFF89447
S1050400FFCF28
S9030000FC
